{
  "_format": "hh-sol-artifact-1",
  "contractName": "EventCreator",
  "sourceName": "contracts/Event.sol",
  "abi": [
    {
      "anonymous": false,
      "inputs": [
        {
          "indexed": false,
          "internalType": "address",
          "name": "_creator",
          "type": "address"
        },
        {
          "indexed": false,
          "internalType": "address",
          "name": "_event",
          "type": "address"
        }
      ],
      "name": "CreateEvent",
      "type": "event"
    },
    {
      "inputs": [
        {
          "internalType": "uint256",
          "name": "_numTickets",
          "type": "uint256"
        },
        {
          "internalType": "uint256",
          "name": "_price",
          "type": "uint256"
        },
        {
          "internalType": "bool",
          "name": "_canBeResold",
          "type": "bool"
        },
        {
          "internalType": "uint256",
          "name": "_royaltyPercent",
          "type": "uint256"
        },
        {
          "internalType": "string",
          "name": "_eventName",
          "type": "string"
        },
        {
          "internalType": "string",
          "name": "_eventSymbol",
          "type": "string"
        }
      ],
      "name": "createEvent",
      "outputs": [
        {
          "internalType": "address",
          "name": "newEvent",
          "type": "address"
        }
      ],
      "stateMutability": "nonpayable",
      "type": "function"
    },
    {
      "inputs": [
        {
          "internalType": "uint256",
          "name": "",
          "type": "uint256"
        }
      ],
      "name": "events",
      "outputs": [
        {
          "internalType": "contract Event",
          "name": "",
          "type": "address"
        }
      ],
      "stateMutability": "view",
      "type": "function"
    },
    {
      "inputs": [],
      "name": "getEvents",
      "outputs": [
        {
          "internalType": "contract Event[]",
          "name": "_events",
          "type": "address[]"
        }
      ],
      "stateMutability": "view",
      "type": "function"
    }
  ],
  "bytecode": "0x608060405234801561001057600080fd5b5061595d806100206000396000f3fe60806040523480156200001157600080fd5b5060043610620000465760003560e01c80630b791430146200004b578063404aa8f91462000081578063f8cf8eff14620000a3575b600080fd5b6200006960048036038101906200006391906200037f565b620000d9565b6040516200007891906200043c565b60405180910390f35b6200008b62000119565b6040516200009a919062000527565b60405180910390f35b620000c16004803603810190620000bb9190620006ea565b6200022c565b604051620000d09190620007e9565b60405180910390f35b60008181548110620000ea57600080fd5b906000526020600020016000915054906101000a900473ffffffffffffffffffffffffffffffffffffffff1681565b606060008054905067ffffffffffffffff8111156200013d576200013c620005a3565b5b6040519080825280602002602001820160405280156200016c5781602001602082028036833780820191505090505b50905060005b60008054905081101562000228576000818154811062000197576200019662000806565b5b9060005260206000200160009054906101000a900473ffffffffffffffffffffffffffffffffffffffff16828281518110620001d857620001d762000806565b5b602002602001019073ffffffffffffffffffffffffffffffffffffffff16908173ffffffffffffffffffffffffffffffffffffffff168152505080806200021f9062000864565b91505062000172565b5090565b60008033888888888888604051620002449062000322565b6200025697969594939291906200095c565b604051809103906000f08015801562000273573d6000803e3d6000fd5b5090506000819080600181540180825580915050600190039060005260206000200160009091909190916101000a81548173ffffffffffffffffffffffffffffffffffffffff021916908373ffffffffffffffffffffffffffffffffffffffff1602179055507f64f31017a670226c80c75659d4bb64bf5bb7f8490fef658f1be89d99583fe30433826040516200030c929190620009e7565b60405180910390a1809150509695505050505050565b614f138062000a1583390190565b6000604051905090565b600080fd5b600080fd5b6000819050919050565b620003598162000344565b81146200036557600080fd5b50565b60008135905062000379816200034e565b92915050565b6000602082840312156200039857620003976200033a565b5b6000620003a88482850162000368565b91505092915050565b600073ffffffffffffffffffffffffffffffffffffffff82169050919050565b6000819050919050565b6000620003fc620003f6620003f084620003b1565b620003d1565b620003b1565b9050919050565b60006200041082620003db565b9050919050565b6000620004248262000403565b9050919050565b620004368162000417565b82525050565b60006020820190506200045360008301846200042b565b92915050565b600081519050919050565b600082825260208201905092915050565b6000819050602082019050919050565b620004908162000417565b82525050565b6000620004a4838362000485565b60208301905092915050565b6000602082019050919050565b6000620004ca8262000459565b620004d6818562000464565b9350620004e38362000475565b8060005b838110156200051a578151620004fe888262000496565b97506200050b83620004b0565b925050600181019050620004e7565b5085935050505092915050565b60006020820190508181036000830152620005438184620004bd565b905092915050565b60008115159050919050565b62000562816200054b565b81146200056e57600080fd5b50565b600081359050620005828162000557565b92915050565b600080fd5b600080fd5b6000601f19601f8301169050919050565b7f4e487b7100000000000000000000000000000000000000000000000000000000600052604160045260246000fd5b620005dd8262000592565b810181811067ffffffffffffffff82111715620005ff57620005fe620005a3565b5b80604052505050565b60006200061462000330565b9050620006228282620005d2565b919050565b600067ffffffffffffffff821115620006455762000644620005a3565b5b620006508262000592565b9050602081019050919050565b82818337600083830152505050565b6000620006836200067d8462000627565b62000608565b905082815260208101848484011115620006a257620006a16200058d565b5b620006af8482856200065d565b509392505050565b600082601f830112620006cf57620006ce62000588565b5b8135620006e18482602086016200066c565b91505092915050565b60008060008060008060c087890312156200070a57620007096200033a565b5b60006200071a89828a0162000368565b96505060206200072d89828a0162000368565b95505060406200074089828a0162000571565b94505060606200075389828a0162000368565b935050608087013567ffffffffffffffff8111156200077757620007766200033f565b5b6200078589828a01620006b7565b92505060a087013567ffffffffffffffff811115620007a957620007a86200033f565b5b620007b789828a01620006b7565b9150509295509295509295565b6000620007d182620003b1565b9050919050565b620007e381620007c4565b82525050565b6000602082019050620008006000830184620007d8565b92915050565b7f4e487b7100000000000000000000000000000000000000000000000000000000600052603260045260246000fd5b7f4e487b7100000000000000000000000000000000000000000000000000000000600052601160045260246000fd5b6000620008718262000344565b91507fffffffffffffffffffffffffffffffffffffffffffffffffffffffffffffffff8203620008a657620008a562000835565b5b600182019050919050565b620008bc8162000344565b82525050565b620008cd816200054b565b82525050565b600081519050919050565b600082825260208201905092915050565b60005b838110156200090f578082015181840152602081019050620008f2565b60008484015250505050565b60006200092882620008d3565b620009348185620008de565b935062000946818560208601620008ef565b620009518162000592565b840191505092915050565b600060e08201905062000973600083018a620007d8565b620009826020830189620008b1565b620009916040830188620008b1565b620009a06060830187620008c2565b620009af6080830186620008b1565b81810360a0830152620009c381856200091b565b905081810360c0830152620009d981846200091b565b905098975050505050505050565b6000604082019050620009fe6000830185620007d8565b62000a0d6020830184620007d8565b939250505056fe60806040523480156200001157600080fd5b5060405162004f1338038062004f13833981810160405281019062000037919062000415565b818181600090816200004a919062000747565b5080600190816200005c919062000747565b5050506000831015801562000072575060648311155b620000b4576040517f08c379a0000000000000000000000000000000000000000000000000000000008152600401620000ab9062000869565b60405180910390fd5b60008611620000fa576040517f08c379a0000000000000000000000000000000000000000000000000000000008152600401620000f19062000869565b60405180910390fd5b86600b60026101000a81548173ffffffffffffffffffffffffffffffffffffffff021916908373ffffffffffffffffffffffffffffffffffffffff16021790555085600a819055508460088190555083600b60006101000a81548160ff021916908315150217905550826009819055506000600660006101000a81548160ff021916908360048111156200019357620001926200088b565b5b021790555050505050505050620008ba565b6000604051905090565b600080fd5b600080fd5b600073ffffffffffffffffffffffffffffffffffffffff82169050919050565b6000620001e682620001b9565b9050919050565b620001f881620001d9565b81146200020457600080fd5b50565b6000815190506200021881620001ed565b92915050565b6000819050919050565b62000233816200021e565b81146200023f57600080fd5b50565b600081519050620002538162000228565b92915050565b60008115159050919050565b620002708162000259565b81146200027c57600080fd5b50565b600081519050620002908162000265565b92915050565b600080fd5b600080fd5b6000601f19601f8301169050919050565b7f4e487b7100000000000000000000000000000000000000000000000000000000600052604160045260246000fd5b620002eb82620002a0565b810181811067ffffffffffffffff821117156200030d576200030c620002b1565b5b80604052505050565b600062000322620001a5565b9050620003308282620002e0565b919050565b600067ffffffffffffffff821115620003535762000352620002b1565b5b6200035e82620002a0565b9050602081019050919050565b60005b838110156200038b5780820151818401526020810190506200036e565b60008484015250505050565b6000620003ae620003a88462000335565b62000316565b905082815260208101848484011115620003cd57620003cc6200029b565b5b620003da8482856200036b565b509392505050565b600082601f830112620003fa57620003f962000296565b5b81516200040c84826020860162000397565b91505092915050565b600080600080600080600060e0888a031215620004375762000436620001af565b5b6000620004478a828b0162000207565b97505060206200045a8a828b0162000242565b96505060406200046d8a828b0162000242565b9550506060620004808a828b016200027f565b9450506080620004938a828b0162000242565b93505060a088015167ffffffffffffffff811115620004b757620004b6620001b4565b5b620004c58a828b01620003e2565b92505060c088015167ffffffffffffffff811115620004e957620004e8620001b4565b5b620004f78a828b01620003e2565b91505092959891949750929550565b600081519050919050565b7f4e487b7100000000000000000000000000000000000000000000000000000000600052602260045260246000fd5b600060028204905060018216806200055957607f821691505b6020821081036200056f576200056e62000511565b5b50919050565b60008190508160005260206000209050919050565b60006020601f8301049050919050565b600082821b905092915050565b600060088302620005d97fffffffffffffffffffffffffffffffffffffffffffffffffffffffffffffffff826200059a565b620005e586836200059a565b95508019841693508086168417925050509392505050565b6000819050919050565b600062000628620006226200061c846200021e565b620005fd565b6200021e565b9050919050565b6000819050919050565b620006448362000607565b6200065c62000653826200062f565b848454620005a7565b825550505050565b600090565b6200067362000664565b6200068081848462000639565b505050565b5b81811015620006a8576200069c60008262000669565b60018101905062000686565b5050565b601f821115620006f757620006c18162000575565b620006cc846200058a565b81016020851015620006dc578190505b620006f4620006eb856200058a565b83018262000685565b50505b505050565b600082821c905092915050565b60006200071c60001984600802620006fc565b1980831691505092915050565b600062000737838362000709565b9150826002028217905092915050565b620007528262000506565b67ffffffffffffffff8111156200076e576200076d620002b1565b5b6200077a825462000540565b62000787828285620006ac565b600060209050601f831160018114620007bf5760008415620007aa578287015190505b620007b6858262000729565b86555062000826565b601f198416620007cf8662000575565b60005b82811015620007f957848901518255600182019150602085019450602081019050620007d2565b8683101562000819578489015162000815601f89168262000709565b8355505b6001600288020188555050505b505050505050565b600082825260208201905092915050565b50565b6000620008516000836200082e565b91506200085e826200083f565b600082019050919050565b60006020820190508181036000830152620008848162000842565b9050919050565b7f4e487b7100000000000000000000000000000000000000000000000000000000600052602160045260246000fd5b61464980620008ca6000396000f3fe6080604052600436106101e35760003560e01c806394d51fc011610102578063a51bba8c11610095578063c87b56dd11610064578063c87b56dd146106f8578063ce3cd99714610735578063e985e9c514610772578063edca914c146107af576101e3565b8063a51bba8c1461064e578063b3874c0d14610679578063b88d4fde146106a4578063c040e6b8146106cd576101e3565b80639f67756d116100d15780639f67756d146105a6578063a035b1fe146105d1578063a22cb465146105fc578063a49aa54414610625576101e3565b806394d51fc0146104ea57806395d89b411461052757806395ee1221146105525780639aecd64a1461057d576101e3565b80633ccfd60b1161017a5780636352211e116101495780636352211e1461041c57806370a082311461045957806383047374146104965780638da5cb5b146104bf576101e3565b80633ccfd60b1461036157806342842e0e146103785780634680a424146103a157806350b44712146103de576101e3565b806318b3822f116101b657806318b3822f146102b657806323b872dd146102df57806327e235e3146103085780632f31707c14610345576101e3565b806301ffc9a7146101e857806306fdde0314610225578063081812fc14610250578063095ea7b31461028d575b600080fd5b3480156101f457600080fd5b5061020f600480360381019061020a91906133c4565b6107b9565b60405161021c919061340c565b60405180910390f35b34801561023157600080fd5b5061023a61089b565b60405161024791906134b7565b60405180910390f35b34801561025c57600080fd5b506102776004803603810190610272919061350f565b61092d565b604051610284919061357d565b60405180910390f35b34801561029957600080fd5b506102b460048036038101906102af91906135c4565b610973565b005b3480156102c257600080fd5b506102dd60048036038101906102d89190613739565b610a8a565b005b3480156102eb57600080fd5b5061030660048036038101906103019190613795565b610cb2565b005b34801561031457600080fd5b5061032f600480360381019061032a91906137e8565b610d12565b60405161033c9190613824565b60405180910390f35b61035f600480360381019061035a919061350f565b610d2a565b005b34801561036d57600080fd5b50610376611081565b005b34801561038457600080fd5b5061039f600480360381019061039a9190613795565b611617565b005b3480156103ad57600080fd5b506103c860048036038101906103c391906137e8565b611637565b6040516103d5919061340c565b60405180910390f35b3480156103ea57600080fd5b506104056004803603810190610400919061350f565b611657565b6040516104139291906138b6565b60405180910390f35b34801561042857600080fd5b50610443600480360381019061043e919061350f565b611698565b604051610450919061357d565b60405180910390f35b34801561046557600080fd5b50610480600480360381019061047b91906137e8565b61171e565b60405161048d9190613824565b60405180910390f35b3480156104a257600080fd5b506104bd60048036038101906104b8919061350f565b6117d5565b005b3480156104cb57600080fd5b506104d4611943565b6040516104e19190613900565b60405180910390f35b3480156104f657600080fd5b50610511600480360381019061050c919061350f565b611969565b60405161051e919061357d565b60405180910390f35b34801561053357600080fd5b5061053c61199c565b60405161054991906134b7565b60405180910390f35b34801561055e57600080fd5b50610567611a2e565b604051610574919061340c565b60405180910390f35b34801561058957600080fd5b506105a4600480360381019061059f91906135c4565b611a41565b005b3480156105b257600080fd5b506105bb611b48565b6040516105c89190613824565b60405180910390f35b3480156105dd57600080fd5b506105e6611b4e565b6040516105f39190613824565b60405180910390f35b34801561060857600080fd5b50610623600480360381019061061e9190613947565b611b54565b005b34801561063157600080fd5b5061064c60048036038101906106479190613987565b611b6a565b005b34801561065a57600080fd5b50610663611dfe565b6040516106709190613824565b60405180910390f35b34801561068557600080fd5b5061068e611e04565b60405161069b919061340c565b60405180910390f35b3480156106b057600080fd5b506106cb60048036038101906106c69190613a68565b611e17565b005b3480156106d957600080fd5b506106e2611e79565b6040516106ef9190613b33565b60405180910390f35b34801561070457600080fd5b5061071f600480360381019061071a919061350f565b611e8c565b60405161072c91906134b7565b60405180910390f35b34801561074157600080fd5b5061075c60048036038101906107579190613b73565b611ef4565b6040516107699190613b33565b60405180910390f35b34801561077e57600080fd5b5061079960048036038101906107949190613ba0565b6120a8565b6040516107a6919061340c565b60405180910390f35b6107b761213c565b005b60007f80ac58cd000000000000000000000000000000000000000000000000000000007bffffffffffffffffffffffffffffffffffffffffffffffffffffffff1916827bffffffffffffffffffffffffffffffffffffffffffffffffffffffff1916148061088457507f5b5e139f000000000000000000000000000000000000000000000000000000007bffffffffffffffffffffffffffffffffffffffffffffffffffffffff1916827bffffffffffffffffffffffffffffffffffffffffffffffffffffffff1916145b8061089457506108938261243c565b5b9050919050565b6060600080546108aa90613c0f565b80601f01602080910402602001604051908101604052809291908181526020018280546108d690613c0f565b80156109235780601f106108f857610100808354040283529160200191610923565b820191906000526020600020905b81548152906001019060200180831161090657829003601f168201915b5050505050905090565b6000610938826124a6565b6004600083815260200190815260200160002060009054906101000a900473ffffffffffffffffffffffffffffffffffffffff169050919050565b600061097e82611698565b90508073ffffffffffffffffffffffffffffffffffffffff168373ffffffffffffffffffffffffffffffffffffffff16036109ee576040517f08c379a00000000000000000000000000000000000000000000000000000000081526004016109e590613cb2565b60405180910390fd5b8073ffffffffffffffffffffffffffffffffffffffff16610a0d6124f1565b73ffffffffffffffffffffffffffffffffffffffff161480610a3c5750610a3b81610a366124f1565b6120a8565b5b610a7b576040517f08c379a0000000000000000000000000000000000000000000000000000000008152600401610a7290613d44565b60405180910390fd5b610a8583836124f9565b505050565b6002806004811115610a9f57610a9e61383f565b5b600660009054906101000a900460ff166004811115610ac157610ac061383f565b5b14610b01576040517f08c379a0000000000000000000000000000000000000000000000000000000008152600401610af890613d8a565b60405180910390fd5b823373ffffffffffffffffffffffffffffffffffffffff16610b2282611698565b73ffffffffffffffffffffffffffffffffffffffff1614610b78576040517f08c379a0000000000000000000000000000000000000000000000000000000008152600401610b6f90613d8a565b60405180910390fd5b60006002811115610b8c57610b8b61383f565b5b60078581548110610ba057610b9f613daa565b5b906000526020600020906002020160010160009054906101000a900460ff166002811115610bd157610bd061383f565b5b14610c11576040517f08c379a0000000000000000000000000000000000000000000000000000000008152600401610c0890613d8a565b60405180910390fd5b600160078581548110610c2757610c26613daa565b5b906000526020600020906002020160010160006101000a81548160ff02191690836002811115610c5a57610c5961383f565b5b0217905550610c68846125b2565b7fad735fea640d2273c159ca0571101d62d2fa19a0d10e2cd97fcc2c2f30410df13085610c9361089b565b86604051610ca49493929190613dd9565b60405180910390a150505050565b610cc3610cbd6124f1565b82612700565b610d02576040517f08c379a0000000000000000000000000000000000000000000000000000000008152600401610cf990613e9e565b60405180910390fd5b610d0d838383612795565b505050565b600c6020528060005260406000206000915090505481565b6001806004811115610d3f57610d3e61383f565b5b600660009054906101000a900460ff166004811115610d6157610d6061383f565b5b14610da1576040517f08c379a0000000000000000000000000000000000000000000000000000000008152600401610d9890613d8a565b60405180910390fd5b600280811115610db457610db361383f565b5b60078381548110610dc857610dc7613daa565b5b906000526020600020906002020160010160009054906101000a900460ff166002811115610df957610df861383f565b5b14610e39576040517f08c379a0000000000000000000000000000000000000000000000000000000008152600401610e3090613d8a565b60405180910390fd5b600060078381548110610e4f57610e4e613daa565b5b906000526020600020906002020160000154905080341115610ed35760008134610e799190613eed565b905080600c60003373ffffffffffffffffffffffffffffffffffffffff1673ffffffffffffffffffffffffffffffffffffffff1681526020019081526020016000206000828254610eca9190613f21565b92505081905550505b6000606482600954610ee59190613f55565b610eef9190613fc6565b905060008183610eff9190613eed565b90506000610f0c86611698565b905081600c60008373ffffffffffffffffffffffffffffffffffffffff1673ffffffffffffffffffffffffffffffffffffffff1681526020019081526020016000206000828254610f5d9190613f21565b9250508190555082600c6000600b60029054906101000a900473ffffffffffffffffffffffffffffffffffffffff1673ffffffffffffffffffffffffffffffffffffffff1673ffffffffffffffffffffffffffffffffffffffff1681526020019081526020016000206000828254610fd59190613f21565b925050819055507ff43c2b94d59192e43ff5461a2ec018bcf2178e26af43252b9bb00e937ab5c8433061100661089b565b33896040516110189493929190613ff7565b60405180910390a161102b813388611617565b60006007878154811061104157611040613daa565b5b906000526020600020906002020160010160006101000a81548160ff021916908360028111156110745761107361383f565b5b0217905550505050505050565b600b60029054906101000a900473ffffffffffffffffffffffffffffffffffffffff1673ffffffffffffffffffffffffffffffffffffffff163373ffffffffffffffffffffffffffffffffffffffff16146113a8576000600c60003373ffffffffffffffffffffffffffffffffffffffff1673ffffffffffffffffffffffffffffffffffffffff1681526020019081526020016000205490506003600481111561112e5761112d61383f565b5b600660009054906101000a900460ff1660048111156111505761114f61383f565b5b1480156111ad575060001515600d60003373ffffffffffffffffffffffffffffffffffffffff1673ffffffffffffffffffffffffffffffffffffffff16815260200190815260200160002060009054906101000a900460ff161515145b156111d6576008546111be3361171e565b6111c89190613f55565b816111d39190613f21565b90505b60008111611219576040517f08c379a000000000000000000000000000000000000000000000000000000000815260040161121090613d8a565b60405180910390fd5b6000600c60003373ffffffffffffffffffffffffffffffffffffffff1673ffffffffffffffffffffffffffffffffffffffff168152602001908152602001600020819055506001600d60003373ffffffffffffffffffffffffffffffffffffffff1673ffffffffffffffffffffffffffffffffffffffff16815260200190815260200160002060006101000a81548160ff021916908315150217905550600033905060008173ffffffffffffffffffffffffffffffffffffffff16836040516112e190614071565b60006040518083038185875af1925050503d806000811461131e576040519150601f19603f3d011682016040523d82523d6000602084013e611323565b606091505b5050905080611367576040517f08c379a000000000000000000000000000000000000000000000000000000000815260040161135e90613d8a565b60405180910390fd5b7f9fe2db218b58c00ab3556f2be44b2769b37978368c63313d82d78306568e47763384604051611398929190614086565b60405180910390a1505050611615565b6004808111156113bb576113ba61383f565b5b600660009054906101000a900460ff1660048111156113dd576113dc61383f565b5b1461141d576040517f08c379a000000000000000000000000000000000000000000000000000000000815260040161141490613d8a565b60405180910390fd5b6000600c6000600b60029054906101000a900473ffffffffffffffffffffffffffffffffffffffff1673ffffffffffffffffffffffffffffffffffffffff1673ffffffffffffffffffffffffffffffffffffffff168152602001908152602001600020549050600081116114c6576040517f08c379a00000000000000000000000000000000000000000000000000000000081526004016114bd90613d8a565b60405180910390fd5b6000600c6000600b60029054906101000a900473ffffffffffffffffffffffffffffffffffffffff1673ffffffffffffffffffffffffffffffffffffffff1673ffffffffffffffffffffffffffffffffffffffff1681526020019081526020016000208190555060003373ffffffffffffffffffffffffffffffffffffffff168260405161155390614071565b60006040518083038185875af1925050503d8060008114611590576040519150601f19603f3d011682016040523d82523d6000602084013e611595565b606091505b50509050806115d9576040517f08c379a00000000000000000000000000000000000000000000000000000000081526004016115d090613d8a565b60405180910390fd5b7f5f0d69e5c0056ecc650fc0d2d916359037135dac3d5b5446d226dfdbe292482e338360405161160a929190614086565b60405180910390a150505b565b61163283838360405180602001604052806000815250611e17565b505050565b600d6020528060005260406000206000915054906101000a900460ff1681565b6007818154811061166757600080fd5b90600052602060002090600202016000915090508060000154908060010160009054906101000a900460ff16905082565b6000806116a483612a8e565b9050600073ffffffffffffffffffffffffffffffffffffffff168173ffffffffffffffffffffffffffffffffffffffff1603611715576040517f08c379a000000000000000000000000000000000000000000000000000000000815260040161170c906140fb565b60405180910390fd5b80915050919050565b60008073ffffffffffffffffffffffffffffffffffffffff168273ffffffffffffffffffffffffffffffffffffffff160361178e576040517f08c379a00000000000000000000000000000000000000000000000000000000081526004016117859061418d565b60405180910390fd5b600360008373ffffffffffffffffffffffffffffffffffffffff1673ffffffffffffffffffffffffffffffffffffffff168152602001908152602001600020549050919050565b60018060048111156117ea576117e961383f565b5b600660009054906101000a900460ff16600481111561180c5761180b61383f565b5b1461184c576040517f08c379a000000000000000000000000000000000000000000000000000000000815260040161184390613d8a565b60405180910390fd5b3373ffffffffffffffffffffffffffffffffffffffff16600e600084815260200190815260200160002060009054906101000a900473ffffffffffffffffffffffffffffffffffffffff1673ffffffffffffffffffffffffffffffffffffffff16036118ed576040517f08c379a00000000000000000000000000000000000000000000000000000000081526004016118e490613d8a565b60405180910390fd5b33600e600084815260200190815260200160002060006101000a81548173ffffffffffffffffffffffffffffffffffffffff021916908373ffffffffffffffffffffffffffffffffffffffff1602179055505050565b600b60029054906101000a900473ffffffffffffffffffffffffffffffffffffffff1681565b600e6020528060005260406000206000915054906101000a900473ffffffffffffffffffffffffffffffffffffffff1681565b6060600180546119ab90613c0f565b80601f01602080910402602001604051908101604052809291908181526020018280546119d790613c0f565b8015611a245780601f106119f957610100808354040283529160200191611a24565b820191906000526020600020905b815481529060010190602001808311611a0757829003601f168201915b5050505050905090565b600b60019054906101000a900460ff1681565b6001806004811115611a5657611a5561383f565b5b600660009054906101000a900460ff166004811115611a7857611a7761383f565b5b14611ab8576040517f08c379a0000000000000000000000000000000000000000000000000000000008152600401611aaf90613d8a565b60405180910390fd5b3373ffffffffffffffffffffffffffffffffffffffff16611ad883611698565b73ffffffffffffffffffffffffffffffffffffffff1614611b2e576040517f08c379a0000000000000000000000000000000000000000000000000000000008152600401611b2590613d8a565b60405180910390fd5b611b39836001611b54565b611b438383610973565b505050565b60095481565b60085481565b611b66611b5f6124f1565b8383612acb565b5050565b6001806004811115611b7f57611b7e61383f565b5b600660009054906101000a900460ff166004811115611ba157611ba061383f565b5b14611be1576040517f08c379a0000000000000000000000000000000000000000000000000000000008152600401611bd890613d8a565b60405180910390fd5b823373ffffffffffffffffffffffffffffffffffffffff16611c0282611698565b73ffffffffffffffffffffffffffffffffffffffff1614611c58576040517f08c379a0000000000000000000000000000000000000000000000000000000008152600401611c4f90613d8a565b60405180910390fd5b60016002811115611c6c57611c6b61383f565b5b60078581548110611c8057611c7f613daa565b5b906000526020600020906002020160010160009054906101000a900460ff166002811115611cb157611cb061383f565b5b03611cf1576040517f08c379a0000000000000000000000000000000000000000000000000000000008152600401611ce890613d8a565b60405180910390fd5b60011515600b60009054906101000a900460ff16151514611d47576040517f08c379a0000000000000000000000000000000000000000000000000000000008152600401611d3e90613d8a565b60405180910390fd5b600260078581548110611d5d57611d5c613daa565b5b906000526020600020906002020160010160006101000a81548160ff02191690836002811115611d9057611d8f61383f565b5b02179055508260078581548110611daa57611da9613daa565b5b9060005260206000209060020201600001819055507fec1a51878793b26371980da80139946e4a398461978717cbe8d07596dd3404b63385604051611df0929190614086565b60405180910390a150505050565b600a5481565b600b60009054906101000a900460ff1681565b611e28611e226124f1565b83612700565b611e67576040517f08c379a0000000000000000000000000000000000000000000000000000000008152600401611e5e90613e9e565b60405180910390fd5b611e7384848484612c37565b50505050565b600660009054906101000a900460ff1681565b6060611e97826124a6565b6000611ea1612c93565b90506000815111611ec15760405180602001604052806000815250611eec565b80611ecb84612caa565b604051602001611edc9291906141e9565b6040516020818303038152906040525b915050919050565b6000600b60029054906101000a900473ffffffffffffffffffffffffffffffffffffffff1673ffffffffffffffffffffffffffffffffffffffff163373ffffffffffffffffffffffffffffffffffffffff1614611f86576040517f08c379a0000000000000000000000000000000000000000000000000000000008152600401611f7d90613d8a565b60405180910390fd5b81600660006101000a81548160ff02191690836004811115611fab57611faa61383f565b5b021790555060036004811115611fc457611fc361383f565b5b600660009054906101000a900460ff166004811115611fe657611fe561383f565b5b03612091576001600b60016101000a81548160ff0219169083151502179055506007805490506008546120199190613f55565b600c6000600b60029054906101000a900473ffffffffffffffffffffffffffffffffffffffff1673ffffffffffffffffffffffffffffffffffffffff1673ffffffffffffffffffffffffffffffffffffffff16815260200190815260200160002060008282546120899190613eed565b925050819055505b600660009054906101000a900460ff169050919050565b6000600560008473ffffffffffffffffffffffffffffffffffffffff1673ffffffffffffffffffffffffffffffffffffffff16815260200190815260200160002060008373ffffffffffffffffffffffffffffffffffffffff1673ffffffffffffffffffffffffffffffffffffffff16815260200190815260200160002060009054906101000a900460ff16905092915050565b60018060048111156121515761215061383f565b5b600660009054906101000a900460ff1660048111156121735761217261383f565b5b146121b3576040517f08c379a00000000000000000000000000000000000000000000000000000000081526004016121aa90613d8a565b60405180910390fd5b6000600a54116121f8576040517f08c379a00000000000000000000000000000000000000000000000000000000081526004016121ef90613d8a565b60405180910390fd5b60085434101561223d576040517f08c379a000000000000000000000000000000000000000000000000000000000815260040161223490613d8a565b60405180910390fd5b600760405180604001604052806008548152602001600060028111156122665761226561383f565b5b81525090806001815401808255809150506001900390600052602060002090600202016000909190919091506000820151816000015560208201518160010160006101000a81548160ff021916908360028111156122c7576122c661383f565b5b02179055505050600060016007805490506122e29190613eed565b9050600a60008154809291906122f79061420d565b9190505550600854341115612370576000600854346123169190613eed565b905080600c60003373ffffffffffffffffffffffffffffffffffffffff1673ffffffffffffffffffffffffffffffffffffffff16815260200190815260200160002060008282546123679190613f21565b92505081905550505b600854600c6000600b60029054906101000a900473ffffffffffffffffffffffffffffffffffffffff1673ffffffffffffffffffffffffffffffffffffffff1673ffffffffffffffffffffffffffffffffffffffff16815260200190815260200160002060008282546123e39190613f21565b925050819055506123f43382612d78565b7f1b430c41ad1e9efc507aac150600ae9a3da936ed08479682cf954ffe044cd3d73061241e61089b565b33846040516124309493929190613ff7565b60405180910390a15050565b60007f01ffc9a7000000000000000000000000000000000000000000000000000000007bffffffffffffffffffffffffffffffffffffffffffffffffffffffff1916827bffffffffffffffffffffffffffffffffffffffffffffffffffffffff1916149050919050565b6124af81612d96565b6124ee576040517f08c379a00000000000000000000000000000000000000000000000000000000081526004016124e5906140fb565b60405180910390fd5b50565b600033905090565b816004600083815260200190815260200160002060006101000a81548173ffffffffffffffffffffffffffffffffffffffff021916908373ffffffffffffffffffffffffffffffffffffffff160217905550808273ffffffffffffffffffffffffffffffffffffffff1661256c83611698565b73ffffffffffffffffffffffffffffffffffffffff167f8c5be1e5ebec7d5bd14f71427d1e84f3dd0314c0f7b2291e5b200ac8c7c3b92560405160405180910390a45050565b60006125bd82611698565b90506125cd816000846001612dd7565b6125d682611698565b90506004600083815260200190815260200160002060006101000a81549073ffffffffffffffffffffffffffffffffffffffff02191690556001600360008373ffffffffffffffffffffffffffffffffffffffff1673ffffffffffffffffffffffffffffffffffffffff168152602001908152602001600020600082825403925050819055506002600083815260200190815260200160002060006101000a81549073ffffffffffffffffffffffffffffffffffffffff021916905581600073ffffffffffffffffffffffffffffffffffffffff168273ffffffffffffffffffffffffffffffffffffffff167fddf252ad1be2c89b69c2b068fc378daa952ba7f163c4a11628f55a4df523b3ef60405160405180910390a46126fc816000846001612ddd565b5050565b60008061270c83611698565b90508073ffffffffffffffffffffffffffffffffffffffff168473ffffffffffffffffffffffffffffffffffffffff16148061274e575061274d81856120a8565b5b8061278c57508373ffffffffffffffffffffffffffffffffffffffff166127748461092d565b73ffffffffffffffffffffffffffffffffffffffff16145b91505092915050565b8273ffffffffffffffffffffffffffffffffffffffff166127b582611698565b73ffffffffffffffffffffffffffffffffffffffff161461280b576040517f08c379a0000000000000000000000000000000000000000000000000000000008152600401612802906142a8565b60405180910390fd5b600073ffffffffffffffffffffffffffffffffffffffff168273ffffffffffffffffffffffffffffffffffffffff160361287a576040517f08c379a00000000000000000000000000000000000000000000000000000000081526004016128719061433a565b60405180910390fd5b6128878383836001612dd7565b8273ffffffffffffffffffffffffffffffffffffffff166128a782611698565b73ffffffffffffffffffffffffffffffffffffffff16146128fd576040517f08c379a00000000000000000000000000000000000000000000000000000000081526004016128f4906142a8565b60405180910390fd5b6004600082815260200190815260200160002060006101000a81549073ffffffffffffffffffffffffffffffffffffffff02191690556001600360008573ffffffffffffffffffffffffffffffffffffffff1673ffffffffffffffffffffffffffffffffffffffff168152602001908152602001600020600082825403925050819055506001600360008473ffffffffffffffffffffffffffffffffffffffff1673ffffffffffffffffffffffffffffffffffffffff16815260200190815260200160002060008282540192505081905550816002600083815260200190815260200160002060006101000a81548173ffffffffffffffffffffffffffffffffffffffff021916908373ffffffffffffffffffffffffffffffffffffffff160217905550808273ffffffffffffffffffffffffffffffffffffffff168473ffffffffffffffffffffffffffffffffffffffff167fddf252ad1be2c89b69c2b068fc378daa952ba7f163c4a11628f55a4df523b3ef60405160405180910390a4612a898383836001612ddd565b505050565b60006002600083815260200190815260200160002060009054906101000a900473ffffffffffffffffffffffffffffffffffffffff169050919050565b8173ffffffffffffffffffffffffffffffffffffffff168373ffffffffffffffffffffffffffffffffffffffff1603612b39576040517f08c379a0000000000000000000000000000000000000000000000000000000008152600401612b30906143a6565b60405180910390fd5b80600560008573ffffffffffffffffffffffffffffffffffffffff1673ffffffffffffffffffffffffffffffffffffffff16815260200190815260200160002060008473ffffffffffffffffffffffffffffffffffffffff1673ffffffffffffffffffffffffffffffffffffffff16815260200190815260200160002060006101000a81548160ff0219169083151502179055508173ffffffffffffffffffffffffffffffffffffffff168373ffffffffffffffffffffffffffffffffffffffff167f17307eab39ab6107e8899845ad3d59bd9653f200f220920489ca2b5937696c3183604051612c2a919061340c565b60405180910390a3505050565b612c42848484612795565b612c4e84848484612de3565b612c8d576040517f08c379a0000000000000000000000000000000000000000000000000000000008152600401612c8490614438565b60405180910390fd5b50505050565b606060405180602001604052806000815250905090565b606060006001612cb984612f6a565b01905060008167ffffffffffffffff811115612cd857612cd761360e565b5b6040519080825280601f01601f191660200182016040528015612d0a5781602001600182028036833780820191505090505b509050600082602001820190505b600115612d6d578080600190039150507f3031323334353637383961626364656600000000000000000000000000000000600a86061a8153600a8581612d6157612d60613f97565b5b04945060008503612d18575b819350505050919050565b612d928282604051806020016040528060008152506130bd565b5050565b60008073ffffffffffffffffffffffffffffffffffffffff16612db883612a8e565b73ffffffffffffffffffffffffffffffffffffffff1614159050919050565b50505050565b50505050565b6000612e048473ffffffffffffffffffffffffffffffffffffffff16613118565b15612f5d578373ffffffffffffffffffffffffffffffffffffffff1663150b7a02612e2d6124f1565b8786866040518563ffffffff1660e01b8152600401612e4f94939291906144ad565b6020604051808303816000875af1925050508015612e8b57506040513d601f19601f82011682018060405250810190612e88919061450e565b60015b612f0d573d8060008114612ebb576040519150601f19603f3d011682016040523d82523d6000602084013e612ec0565b606091505b506000815103612f05576040517f08c379a0000000000000000000000000000000000000000000000000000000008152600401612efc90614438565b60405180910390fd5b805181602001fd5b63150b7a0260e01b7bffffffffffffffffffffffffffffffffffffffffffffffffffffffff1916817bffffffffffffffffffffffffffffffffffffffffffffffffffffffff191614915050612f62565b600190505b949350505050565b600080600090507a184f03e93ff9f4daa797ed6e38ed64bf6a1f0100000000000000008310612fc8577a184f03e93ff9f4daa797ed6e38ed64bf6a1f0100000000000000008381612fbe57612fbd613f97565b5b0492506040810190505b6d04ee2d6d415b85acef81000000008310613005576d04ee2d6d415b85acef81000000008381612ffb57612ffa613f97565b5b0492506020810190505b662386f26fc10000831061303457662386f26fc10000838161302a57613029613f97565b5b0492506010810190505b6305f5e100831061305d576305f5e100838161305357613052613f97565b5b0492506008810190505b612710831061308257612710838161307857613077613f97565b5b0492506004810190505b606483106130a5576064838161309b5761309a613f97565b5b0492506002810190505b600a83106130b4576001810190505b80915050919050565b6130c7838361313b565b6130d46000848484612de3565b613113576040517f08c379a000000000000000000000000000000000000000000000000000000000815260040161310a90614438565b60405180910390fd5b505050565b6000808273ffffffffffffffffffffffffffffffffffffffff163b119050919050565b600073ffffffffffffffffffffffffffffffffffffffff168273ffffffffffffffffffffffffffffffffffffffff16036131aa576040517f08c379a00000000000000000000000000000000000000000000000000000000081526004016131a190614587565b60405180910390fd5b6131b381612d96565b156131f3576040517f08c379a00000000000000000000000000000000000000000000000000000000081526004016131ea906145f3565b60405180910390fd5b613201600083836001612dd7565b61320a81612d96565b1561324a576040517f08c379a0000000000000000000000000000000000000000000000000000000008152600401613241906145f3565b60405180910390fd5b6001600360008473ffffffffffffffffffffffffffffffffffffffff1673ffffffffffffffffffffffffffffffffffffffff16815260200190815260200160002060008282540192505081905550816002600083815260200190815260200160002060006101000a81548173ffffffffffffffffffffffffffffffffffffffff021916908373ffffffffffffffffffffffffffffffffffffffff160217905550808273ffffffffffffffffffffffffffffffffffffffff16600073ffffffffffffffffffffffffffffffffffffffff167fddf252ad1be2c89b69c2b068fc378daa952ba7f163c4a11628f55a4df523b3ef60405160405180910390a4613354600083836001612ddd565b5050565b6000604051905090565b600080fd5b600080fd5b60007fffffffff0000000000000000000000000000000000000000000000000000000082169050919050565b6133a18161336c565b81146133ac57600080fd5b50565b6000813590506133be81613398565b92915050565b6000602082840312156133da576133d9613362565b5b60006133e8848285016133af565b91505092915050565b60008115159050919050565b613406816133f1565b82525050565b600060208201905061342160008301846133fd565b92915050565b600081519050919050565b600082825260208201905092915050565b60005b83811015613461578082015181840152602081019050613446565b60008484015250505050565b6000601f19601f8301169050919050565b600061348982613427565b6134938185613432565b93506134a3818560208601613443565b6134ac8161346d565b840191505092915050565b600060208201905081810360008301526134d1818461347e565b905092915050565b6000819050919050565b6134ec816134d9565b81146134f757600080fd5b50565b600081359050613509816134e3565b92915050565b60006020828403121561352557613524613362565b5b6000613533848285016134fa565b91505092915050565b600073ffffffffffffffffffffffffffffffffffffffff82169050919050565b60006135678261353c565b9050919050565b6135778161355c565b82525050565b6000602082019050613592600083018461356e565b92915050565b6135a18161355c565b81146135ac57600080fd5b50565b6000813590506135be81613598565b92915050565b600080604083850312156135db576135da613362565b5b60006135e9858286016135af565b92505060206135fa858286016134fa565b9150509250929050565b600080fd5b600080fd5b7f4e487b7100000000000000000000000000000000000000000000000000000000600052604160045260246000fd5b6136468261346d565b810181811067ffffffffffffffff821117156136655761366461360e565b5b80604052505050565b6000613678613358565b9050613684828261363d565b919050565b600067ffffffffffffffff8211156136a4576136a361360e565b5b6136ad8261346d565b9050602081019050919050565b82818337600083830152505050565b60006136dc6136d784613689565b61366e565b9050828152602081018484840111156136f8576136f7613609565b5b6137038482856136ba565b509392505050565b600082601f8301126137205761371f613604565b5b81356137308482602086016136c9565b91505092915050565b600080604083850312156137505761374f613362565b5b600061375e858286016134fa565b925050602083013567ffffffffffffffff81111561377f5761377e613367565b5b61378b8582860161370b565b9150509250929050565b6000806000606084860312156137ae576137ad613362565b5b60006137bc868287016135af565b93505060206137cd868287016135af565b92505060406137de868287016134fa565b9150509250925092565b6000602082840312156137fe576137fd613362565b5b600061380c848285016135af565b91505092915050565b61381e816134d9565b82525050565b60006020820190506138396000830184613815565b92915050565b7f4e487b7100000000000000000000000000000000000000000000000000000000600052602160045260246000fd5b6003811061387f5761387e61383f565b5b50565b60008190506138908261386e565b919050565b60006138a082613882565b9050919050565b6138b081613895565b82525050565b60006040820190506138cb6000830185613815565b6138d860208301846138a7565b9392505050565b60006138ea8261353c565b9050919050565b6138fa816138df565b82525050565b600060208201905061391560008301846138f1565b92915050565b613924816133f1565b811461392f57600080fd5b50565b6000813590506139418161391b565b92915050565b6000806040838503121561395e5761395d613362565b5b600061396c858286016135af565b925050602061397d85828601613932565b9150509250929050565b6000806040838503121561399e5761399d613362565b5b60006139ac858286016134fa565b92505060206139bd858286016134fa565b9150509250929050565b600067ffffffffffffffff8211156139e2576139e161360e565b5b6139eb8261346d565b9050602081019050919050565b6000613a0b613a06846139c7565b61366e565b905082815260208101848484011115613a2757613a26613609565b5b613a328482856136ba565b509392505050565b600082601f830112613a4f57613a4e613604565b5b8135613a5f8482602086016139f8565b91505092915050565b60008060008060808587031215613a8257613a81613362565b5b6000613a90878288016135af565b9450506020613aa1878288016135af565b9350506040613ab2878288016134fa565b925050606085013567ffffffffffffffff811115613ad357613ad2613367565b5b613adf87828801613a3a565b91505092959194509250565b60058110613afc57613afb61383f565b5b50565b6000819050613b0d82613aeb565b919050565b6000613b1d82613aff565b9050919050565b613b2d81613b12565b82525050565b6000602082019050613b486000830184613b24565b92915050565b60058110613b5b57600080fd5b50565b600081359050613b6d81613b4e565b92915050565b600060208284031215613b8957613b88613362565b5b6000613b9784828501613b5e565b91505092915050565b60008060408385031215613bb757613bb6613362565b5b6000613bc5858286016135af565b9250506020613bd6858286016135af565b9150509250929050565b7f4e487b7100000000000000000000000000000000000000000000000000000000600052602260045260246000fd5b60006002820490506001821680613c2757607f821691505b602082108103613c3a57613c39613be0565b5b50919050565b7f4552433732313a20617070726f76616c20746f2063757272656e74206f776e6560008201527f7200000000000000000000000000000000000000000000000000000000000000602082015250565b6000613c9c602183613432565b9150613ca782613c40565b604082019050919050565b60006020820190508181036000830152613ccb81613c8f565b9050919050565b7f4552433732313a20617070726f76652063616c6c6572206973206e6f7420746f60008201527f6b656e206f776e6572206f7220617070726f76656420666f7220616c6c000000602082015250565b6000613d2e603d83613432565b9150613d3982613cd2565b604082019050919050565b60006020820190508181036000830152613d5d81613d21565b9050919050565b50565b6000613d74600083613432565b9150613d7f82613d64565b600082019050919050565b60006020820190508181036000830152613da381613d67565b9050919050565b7f4e487b7100000000000000000000000000000000000000000000000000000000600052603260045260246000fd5b6000608082019050613dee600083018761356e565b613dfb6020830186613815565b8181036040830152613e0d818561347e565b90508181036060830152613e21818461347e565b905095945050505050565b7f4552433732313a2063616c6c6572206973206e6f7420746f6b656e206f776e6560008201527f72206f7220617070726f76656400000000000000000000000000000000000000602082015250565b6000613e88602d83613432565b9150613e9382613e2c565b604082019050919050565b60006020820190508181036000830152613eb781613e7b565b9050919050565b7f4e487b7100000000000000000000000000000000000000000000000000000000600052601160045260246000fd5b6000613ef8826134d9565b9150613f03836134d9565b9250828203905081811115613f1b57613f1a613ebe565b5b92915050565b6000613f2c826134d9565b9150613f37836134d9565b9250828201905080821115613f4f57613f4e613ebe565b5b92915050565b6000613f60826134d9565b9150613f6b836134d9565b9250828202613f79816134d9565b91508282048414831517613f9057613f8f613ebe565b5b5092915050565b7f4e487b7100000000000000000000000000000000000000000000000000000000600052601260045260246000fd5b6000613fd1826134d9565b9150613fdc836134d9565b925082613fec57613feb613f97565b5b828204905092915050565b600060808201905061400c600083018761356e565b818103602083015261401e818661347e565b905061402d604083018561356e565b61403a6060830184613815565b95945050505050565b600081905092915050565b600061405b600083614043565b915061406682613d64565b600082019050919050565b600061407c8261404e565b9150819050919050565b600060408201905061409b600083018561356e565b6140a86020830184613815565b9392505050565b7f4552433732313a20696e76616c696420746f6b656e2049440000000000000000600082015250565b60006140e5601883613432565b91506140f0826140af565b602082019050919050565b60006020820190508181036000830152614114816140d8565b9050919050565b7f4552433732313a2061646472657373207a65726f206973206e6f74206120766160008201527f6c6964206f776e65720000000000000000000000000000000000000000000000602082015250565b6000614177602983613432565b91506141828261411b565b604082019050919050565b600060208201905081810360008301526141a68161416a565b9050919050565b600081905092915050565b60006141c382613427565b6141cd81856141ad565b93506141dd818560208601613443565b80840191505092915050565b60006141f582856141b8565b915061420182846141b8565b91508190509392505050565b6000614218826134d9565b91506000820361422b5761422a613ebe565b5b600182039050919050565b7f4552433732313a207472616e736665722066726f6d20696e636f72726563742060008201527f6f776e6572000000000000000000000000000000000000000000000000000000602082015250565b6000614292602583613432565b915061429d82614236565b604082019050919050565b600060208201905081810360008301526142c181614285565b9050919050565b7f4552433732313a207472616e7366657220746f20746865207a65726f2061646460008201527f7265737300000000000000000000000000000000000000000000000000000000602082015250565b6000614324602483613432565b915061432f826142c8565b604082019050919050565b6000602082019050818103600083015261435381614317565b9050919050565b7f4552433732313a20617070726f766520746f2063616c6c657200000000000000600082015250565b6000614390601983613432565b915061439b8261435a565b602082019050919050565b600060208201905081810360008301526143bf81614383565b9050919050565b7f4552433732313a207472616e7366657220746f206e6f6e20455243373231526560008201527f63656976657220696d706c656d656e7465720000000000000000000000000000602082015250565b6000614422603283613432565b915061442d826143c6565b604082019050919050565b6000602082019050818103600083015261445181614415565b9050919050565b600081519050919050565b600082825260208201905092915050565b600061447f82614458565b6144898185614463565b9350614499818560208601613443565b6144a28161346d565b840191505092915050565b60006080820190506144c2600083018761356e565b6144cf602083018661356e565b6144dc6040830185613815565b81810360608301526144ee8184614474565b905095945050505050565b60008151905061450881613398565b92915050565b60006020828403121561452457614523613362565b5b6000614532848285016144f9565b91505092915050565b7f4552433732313a206d696e7420746f20746865207a65726f2061646472657373600082015250565b6000614571602083613432565b915061457c8261453b565b602082019050919050565b600060208201905081810360008301526145a081614564565b9050919050565b7f4552433732313a20746f6b656e20616c7265616479206d696e74656400000000600082015250565b60006145dd601c83613432565b91506145e8826145a7565b602082019050919050565b6000602082019050818103600083015261460c816145d0565b905091905056fea264697066735822122077919a2808471dd489fa0f28044d249a869f5aae218170b32d8d5a34f58ad4af64736f6c63430008110033a264697066735822122006f4cf6e7c23c466f6e63f90b7f1f51f6904fb2230f7b08cc7492ce59a7d753b64736f6c63430008110033",
  "linkReferences": {},
  "deployedLinkReferences": {}
}