{
  "_format": "hh-sol-artifact-1",
  "contractName": "EventCreator",
  "sourceName": "contracts/Event.sol",
  "abi": [
    {
      "anonymous": false,
      "inputs": [
        {
          "indexed": false,
          "internalType": "address",
          "name": "_creator",
          "type": "address"
        },
        {
          "indexed": false,
          "internalType": "address",
          "name": "_event",
          "type": "address"
        }
      ],
      "name": "CreateEvent",
      "type": "event"
    },
    {
      "inputs": [
        {
          "internalType": "uint256",
          "name": "_numTickets",
          "type": "uint256"
        },
        {
          "internalType": "uint256",
          "name": "_price",
          "type": "uint256"
        },
        {
          "internalType": "bool",
          "name": "_canBeResold",
          "type": "bool"
        },
        {
          "internalType": "uint256",
          "name": "_royaltyPercent",
          "type": "uint256"
        },
        {
          "internalType": "string",
          "name": "_eventName",
          "type": "string"
        },
        {
          "internalType": "string",
          "name": "_eventSymbol",
          "type": "string"
        }
      ],
      "name": "createEvent",
      "outputs": [
        {
          "internalType": "address",
          "name": "newEvent",
          "type": "address"
        }
      ],
      "stateMutability": "nonpayable",
      "type": "function"
    },
    {
      "inputs": [
        {
          "internalType": "uint256",
          "name": "",
          "type": "uint256"
        }
      ],
      "name": "events",
      "outputs": [
        {
          "internalType": "contract Event",
          "name": "",
          "type": "address"
        }
      ],
      "stateMutability": "view",
      "type": "function"
    },
    {
      "inputs": [],
      "name": "getEvents",
      "outputs": [
        {
          "internalType": "contract Event[]",
          "name": "_events",
          "type": "address[]"
        }
      ],
      "stateMutability": "view",
      "type": "function"
    }
  ],
  "bytecode": "0x608060405234801561001057600080fd5b50615963806100206000396000f3fe60806040523480156200001157600080fd5b5060043610620000465760003560e01c80630b791430146200004b578063404aa8f91462000081578063f8cf8eff14620000a3575b600080fd5b6200006960048036038101906200006391906200037f565b620000d9565b6040516200007891906200043c565b60405180910390f35b6200008b62000119565b6040516200009a919062000527565b60405180910390f35b620000c16004803603810190620000bb9190620006ea565b6200022c565b604051620000d09190620007e9565b60405180910390f35b60008181548110620000ea57600080fd5b906000526020600020016000915054906101000a900473ffffffffffffffffffffffffffffffffffffffff1681565b606060008054905067ffffffffffffffff8111156200013d576200013c620005a3565b5b6040519080825280602002602001820160405280156200016c5781602001602082028036833780820191505090505b50905060005b60008054905081101562000228576000818154811062000197576200019662000806565b5b9060005260206000200160009054906101000a900473ffffffffffffffffffffffffffffffffffffffff16828281518110620001d857620001d762000806565b5b602002602001019073ffffffffffffffffffffffffffffffffffffffff16908173ffffffffffffffffffffffffffffffffffffffff168152505080806200021f9062000864565b91505062000172565b5090565b60008033888888888888604051620002449062000322565b6200025697969594939291906200095c565b604051809103906000f08015801562000273573d6000803e3d6000fd5b5090506000819080600181540180825580915050600190039060005260206000200160009091909190916101000a81548173ffffffffffffffffffffffffffffffffffffffff021916908373ffffffffffffffffffffffffffffffffffffffff1602179055507f64f31017a670226c80c75659d4bb64bf5bb7f8490fef658f1be89d99583fe30433826040516200030c929190620009e7565b60405180910390a1809150509695505050505050565b614f198062000a1583390190565b6000604051905090565b600080fd5b600080fd5b6000819050919050565b620003598162000344565b81146200036557600080fd5b50565b60008135905062000379816200034e565b92915050565b6000602082840312156200039857620003976200033a565b5b6000620003a88482850162000368565b91505092915050565b600073ffffffffffffffffffffffffffffffffffffffff82169050919050565b6000819050919050565b6000620003fc620003f6620003f084620003b1565b620003d1565b620003b1565b9050919050565b60006200041082620003db565b9050919050565b6000620004248262000403565b9050919050565b620004368162000417565b82525050565b60006020820190506200045360008301846200042b565b92915050565b600081519050919050565b600082825260208201905092915050565b6000819050602082019050919050565b620004908162000417565b82525050565b6000620004a4838362000485565b60208301905092915050565b6000602082019050919050565b6000620004ca8262000459565b620004d6818562000464565b9350620004e38362000475565b8060005b838110156200051a578151620004fe888262000496565b97506200050b83620004b0565b925050600181019050620004e7565b5085935050505092915050565b60006020820190508181036000830152620005438184620004bd565b905092915050565b60008115159050919050565b62000562816200054b565b81146200056e57600080fd5b50565b600081359050620005828162000557565b92915050565b600080fd5b600080fd5b6000601f19601f8301169050919050565b7f4e487b7100000000000000000000000000000000000000000000000000000000600052604160045260246000fd5b620005dd8262000592565b810181811067ffffffffffffffff82111715620005ff57620005fe620005a3565b5b80604052505050565b60006200061462000330565b9050620006228282620005d2565b919050565b600067ffffffffffffffff821115620006455762000644620005a3565b5b620006508262000592565b9050602081019050919050565b82818337600083830152505050565b6000620006836200067d8462000627565b62000608565b905082815260208101848484011115620006a257620006a16200058d565b5b620006af8482856200065d565b509392505050565b600082601f830112620006cf57620006ce62000588565b5b8135620006e18482602086016200066c565b91505092915050565b60008060008060008060c087890312156200070a57620007096200033a565b5b60006200071a89828a0162000368565b96505060206200072d89828a0162000368565b95505060406200074089828a0162000571565b94505060606200075389828a0162000368565b935050608087013567ffffffffffffffff8111156200077757620007766200033f565b5b6200078589828a01620006b7565b92505060a087013567ffffffffffffffff811115620007a957620007a86200033f565b5b620007b789828a01620006b7565b9150509295509295509295565b6000620007d182620003b1565b9050919050565b620007e381620007c4565b82525050565b6000602082019050620008006000830184620007d8565b92915050565b7f4e487b7100000000000000000000000000000000000000000000000000000000600052603260045260246000fd5b7f4e487b7100000000000000000000000000000000000000000000000000000000600052601160045260246000fd5b6000620008718262000344565b91507fffffffffffffffffffffffffffffffffffffffffffffffffffffffffffffffff8203620008a657620008a562000835565b5b600182019050919050565b620008bc8162000344565b82525050565b620008cd816200054b565b82525050565b600081519050919050565b600082825260208201905092915050565b60005b838110156200090f578082015181840152602081019050620008f2565b60008484015250505050565b60006200092882620008d3565b620009348185620008de565b935062000946818560208601620008ef565b620009518162000592565b840191505092915050565b600060e08201905062000973600083018a620007d8565b620009826020830189620008b1565b620009916040830188620008b1565b620009a06060830187620008c2565b620009af6080830186620008b1565b81810360a0830152620009c381856200091b565b905081810360c0830152620009d981846200091b565b905098975050505050505050565b6000604082019050620009fe6000830185620007d8565b62000a0d6020830184620007d8565b939250505056fe60806040523480156200001157600080fd5b5060405162004f1938038062004f1983398181016040528101906200003791906200041c565b818181600090816200004a91906200074e565b5080600190816200005c91906200074e565b5050506000831015801562000072575060648311155b620000b4576040517f08c379a0000000000000000000000000000000000000000000000000000000008152600401620000ab9062000870565b60405180910390fd5b60008611620000fa576040517f08c379a0000000000000000000000000000000000000000000000000000000008152600401620000f19062000870565b60405180910390fd5b86600c60026101000a81548173ffffffffffffffffffffffffffffffffffffffff021916908373ffffffffffffffffffffffffffffffffffffffff16021790555085600a8190555085600b819055508460088190555083600c60006101000a81548160ff021916908315150217905550826009819055506000600660006101000a81548160ff021916908360048111156200019a576200019962000892565b5b021790555050505050505050620008c1565b6000604051905090565b600080fd5b600080fd5b600073ffffffffffffffffffffffffffffffffffffffff82169050919050565b6000620001ed82620001c0565b9050919050565b620001ff81620001e0565b81146200020b57600080fd5b50565b6000815190506200021f81620001f4565b92915050565b6000819050919050565b6200023a8162000225565b81146200024657600080fd5b50565b6000815190506200025a816200022f565b92915050565b60008115159050919050565b620002778162000260565b81146200028357600080fd5b50565b60008151905062000297816200026c565b92915050565b600080fd5b600080fd5b6000601f19601f8301169050919050565b7f4e487b7100000000000000000000000000000000000000000000000000000000600052604160045260246000fd5b620002f282620002a7565b810181811067ffffffffffffffff82111715620003145762000313620002b8565b5b80604052505050565b600062000329620001ac565b9050620003378282620002e7565b919050565b600067ffffffffffffffff8211156200035a5762000359620002b8565b5b6200036582620002a7565b9050602081019050919050565b60005b838110156200039257808201518184015260208101905062000375565b60008484015250505050565b6000620003b5620003af846200033c565b6200031d565b905082815260208101848484011115620003d457620003d3620002a2565b5b620003e184828562000372565b509392505050565b600082601f8301126200040157620004006200029d565b5b8151620004138482602086016200039e565b91505092915050565b600080600080600080600060e0888a0312156200043e576200043d620001b6565b5b60006200044e8a828b016200020e565b9750506020620004618a828b0162000249565b9650506040620004748a828b0162000249565b9550506060620004878a828b0162000286565b94505060806200049a8a828b0162000249565b93505060a088015167ffffffffffffffff811115620004be57620004bd620001bb565b5b620004cc8a828b01620003e9565b92505060c088015167ffffffffffffffff811115620004f057620004ef620001bb565b5b620004fe8a828b01620003e9565b91505092959891949750929550565b600081519050919050565b7f4e487b7100000000000000000000000000000000000000000000000000000000600052602260045260246000fd5b600060028204905060018216806200056057607f821691505b60208210810362000576576200057562000518565b5b50919050565b60008190508160005260206000209050919050565b60006020601f8301049050919050565b600082821b905092915050565b600060088302620005e07fffffffffffffffffffffffffffffffffffffffffffffffffffffffffffffffff82620005a1565b620005ec8683620005a1565b95508019841693508086168417925050509392505050565b6000819050919050565b60006200062f62000629620006238462000225565b62000604565b62000225565b9050919050565b6000819050919050565b6200064b836200060e565b620006636200065a8262000636565b848454620005ae565b825550505050565b600090565b6200067a6200066b565b6200068781848462000640565b505050565b5b81811015620006af57620006a360008262000670565b6001810190506200068d565b5050565b601f821115620006fe57620006c8816200057c565b620006d38462000591565b81016020851015620006e3578190505b620006fb620006f28562000591565b8301826200068c565b50505b505050565b600082821c905092915050565b6000620007236000198460080262000703565b1980831691505092915050565b60006200073e838362000710565b9150826002028217905092915050565b62000759826200050d565b67ffffffffffffffff811115620007755762000774620002b8565b5b62000781825462000547565b6200078e828285620006b3565b600060209050601f831160018114620007c65760008415620007b1578287015190505b620007bd858262000730565b8655506200082d565b601f198416620007d6866200057c565b60005b828110156200080057848901518255600182019150602085019450602081019050620007d9565b868310156200082057848901516200081c601f89168262000710565b8355505b6001600288020188555050505b505050505050565b600082825260208201905092915050565b50565b60006200085860008362000835565b9150620008658262000846565b600082019050919050565b600060208201905081810360008301526200088b8162000849565b9050919050565b7f4e487b7100000000000000000000000000000000000000000000000000000000600052602160045260246000fd5b61464880620008d16000396000f3fe6080604052600436106101ee5760003560e01c806394d51fc01161010d578063a51bba8c116100a0578063c87b56dd1161006f578063c87b56dd14610705578063ce3cd99714610742578063e985e9c51461077f578063edca914c146107bc578063f2d1ea05146107c6576101ee565b8063a51bba8c1461065b578063b3874c0d14610686578063b88d4fde146106b1578063c040e6b8146106da576101ee565b80639f67756d116100dc5780639f67756d146105b3578063a035b1fe146105de578063a22cb46514610609578063a49aa54414610632576101ee565b806394d51fc0146104f757806395d89b411461053457806395ee12211461055f5780639aecd64a1461058a576101ee565b80633ccfd60b116101855780636352211e116101545780636352211e1461042957806370a082311461046657806383047374146104a35780638da5cb5b146104cc576101ee565b80633ccfd60b1461036e57806342842e0e146103855780634680a424146103ae57806350b44712146103eb576101ee565b806323b872dd116101c157806323b872dd146102c157806327e235e3146102ea5780632f31707c14610327578063353d90ec14610343576101ee565b806301ffc9a7146101f357806306fdde0314610230578063081812fc1461025b578063095ea7b314610298575b600080fd5b3480156101ff57600080fd5b5061021a600480360381019061021591906133fd565b6107ef565b6040516102279190613445565b60405180910390f35b34801561023c57600080fd5b506102456108d1565b60405161025291906134f0565b60405180910390f35b34801561026757600080fd5b50610282600480360381019061027d9190613548565b610963565b60405161028f91906135b6565b60405180910390f35b3480156102a457600080fd5b506102bf60048036038101906102ba91906135fd565b6109a9565b005b3480156102cd57600080fd5b506102e860048036038101906102e3919061363d565b610ac0565b005b3480156102f657600080fd5b50610311600480360381019061030c9190613690565b610b20565b60405161031e91906136cc565b60405180910390f35b610341600480360381019061033c9190613548565b610b38565b005b34801561034f57600080fd5b50610358610e8f565b60405161036591906136cc565b60405180910390f35b34801561037a57600080fd5b50610383610e95565b005b34801561039157600080fd5b506103ac60048036038101906103a7919061363d565b61142b565b005b3480156103ba57600080fd5b506103d560048036038101906103d09190613690565b61144b565b6040516103e29190613445565b60405180910390f35b3480156103f757600080fd5b50610412600480360381019061040d9190613548565b61146b565b60405161042092919061375e565b60405180910390f35b34801561043557600080fd5b50610450600480360381019061044b9190613548565b6114ac565b60405161045d91906135b6565b60405180910390f35b34801561047257600080fd5b5061048d60048036038101906104889190613690565b611532565b60405161049a91906136cc565b60405180910390f35b3480156104af57600080fd5b506104ca60048036038101906104c59190613548565b6115e9565b005b3480156104d857600080fd5b506104e1611757565b6040516104ee91906137a8565b60405180910390f35b34801561050357600080fd5b5061051e60048036038101906105199190613548565b61177d565b60405161052b91906135b6565b60405180910390f35b34801561054057600080fd5b506105496117b0565b60405161055691906134f0565b60405180910390f35b34801561056b57600080fd5b50610574611842565b6040516105819190613445565b60405180910390f35b34801561059657600080fd5b506105b160048036038101906105ac91906135fd565b611855565b005b3480156105bf57600080fd5b506105c861195c565b6040516105d591906136cc565b60405180910390f35b3480156105ea57600080fd5b506105f3611962565b60405161060091906136cc565b60405180910390f35b34801561061557600080fd5b50610630600480360381019061062b91906137ef565b611968565b005b34801561063e57600080fd5b506106596004803603810190610654919061382f565b61197e565b005b34801561066757600080fd5b50610670611c12565b60405161067d91906136cc565b60405180910390f35b34801561069257600080fd5b5061069b611c18565b6040516106a89190613445565b60405180910390f35b3480156106bd57600080fd5b506106d860048036038101906106d391906139a4565b611c2b565b005b3480156106e657600080fd5b506106ef611c8d565b6040516106fc9190613a6f565b60405180910390f35b34801561071157600080fd5b5061072c60048036038101906107279190613548565b611ca0565b60405161073991906134f0565b60405180910390f35b34801561074e57600080fd5b5061076960048036038101906107649190613aaf565b611d08565b6040516107769190613a6f565b60405180910390f35b34801561078b57600080fd5b506107a660048036038101906107a19190613adc565b611ebc565b6040516107b39190613445565b60405180910390f35b6107c4611f50565b005b3480156107d257600080fd5b506107ed60048036038101906107e89190613548565b612250565b005b60007f80ac58cd000000000000000000000000000000000000000000000000000000007bffffffffffffffffffffffffffffffffffffffffffffffffffffffff1916827bffffffffffffffffffffffffffffffffffffffffffffffffffffffff191614806108ba57507f5b5e139f000000000000000000000000000000000000000000000000000000007bffffffffffffffffffffffffffffffffffffffffffffffffffffffff1916827bffffffffffffffffffffffffffffffffffffffffffffffffffffffff1916145b806108ca57506108c982612475565b5b9050919050565b6060600080546108e090613b4b565b80601f016020809104026020016040519081016040528092919081815260200182805461090c90613b4b565b80156109595780601f1061092e57610100808354040283529160200191610959565b820191906000526020600020905b81548152906001019060200180831161093c57829003601f168201915b5050505050905090565b600061096e826124df565b6004600083815260200190815260200160002060009054906101000a900473ffffffffffffffffffffffffffffffffffffffff169050919050565b60006109b4826114ac565b90508073ffffffffffffffffffffffffffffffffffffffff168373ffffffffffffffffffffffffffffffffffffffff1603610a24576040517f08c379a0000000000000000000000000000000000000000000000000000000008152600401610a1b90613bee565b60405180910390fd5b8073ffffffffffffffffffffffffffffffffffffffff16610a4361252a565b73ffffffffffffffffffffffffffffffffffffffff161480610a725750610a7181610a6c61252a565b611ebc565b5b610ab1576040517f08c379a0000000000000000000000000000000000000000000000000000000008152600401610aa890613c80565b60405180910390fd5b610abb8383612532565b505050565b610ad1610acb61252a565b826125eb565b610b10576040517f08c379a0000000000000000000000000000000000000000000000000000000008152600401610b0790613d12565b60405180910390fd5b610b1b838383612680565b505050565b600d6020528060005260406000206000915090505481565b6001806004811115610b4d57610b4c6136e7565b5b600660009054906101000a900460ff166004811115610b6f57610b6e6136e7565b5b14610baf576040517f08c379a0000000000000000000000000000000000000000000000000000000008152600401610ba690613d7e565b60405180910390fd5b600280811115610bc257610bc16136e7565b5b60078381548110610bd657610bd5613d9e565b5b906000526020600020906002020160010160009054906101000a900460ff166002811115610c0757610c066136e7565b5b14610c47576040517f08c379a0000000000000000000000000000000000000000000000000000000008152600401610c3e90613df3565b60405180910390fd5b600060078381548110610c5d57610c5c613d9e565b5b906000526020600020906002020160000154905080341115610ce15760008134610c879190613e42565b905080600d60003373ffffffffffffffffffffffffffffffffffffffff1673ffffffffffffffffffffffffffffffffffffffff1681526020019081526020016000206000828254610cd89190613e76565b92505081905550505b6000606482600954610cf39190613eaa565b610cfd9190613f1b565b905060008183610d0d9190613e42565b90506000610d1a866114ac565b905081600d60008373ffffffffffffffffffffffffffffffffffffffff1673ffffffffffffffffffffffffffffffffffffffff1681526020019081526020016000206000828254610d6b9190613e76565b9250508190555082600d6000600c60029054906101000a900473ffffffffffffffffffffffffffffffffffffffff1673ffffffffffffffffffffffffffffffffffffffff1673ffffffffffffffffffffffffffffffffffffffff1681526020019081526020016000206000828254610de39190613e76565b925050819055507ff43c2b94d59192e43ff5461a2ec018bcf2178e26af43252b9bb00e937ab5c84330610e146108d1565b3389604051610e269493929190613f4c565b60405180910390a1610e3981338861142b565b600060078781548110610e4f57610e4e613d9e565b5b906000526020600020906002020160010160006101000a81548160ff02191690836002811115610e8257610e816136e7565b5b0217905550505050505050565b600b5481565b600c60029054906101000a900473ffffffffffffffffffffffffffffffffffffffff1673ffffffffffffffffffffffffffffffffffffffff163373ffffffffffffffffffffffffffffffffffffffff16146111bc576000600d60003373ffffffffffffffffffffffffffffffffffffffff1673ffffffffffffffffffffffffffffffffffffffff16815260200190815260200160002054905060036004811115610f4257610f416136e7565b5b600660009054906101000a900460ff166004811115610f6457610f636136e7565b5b148015610fc1575060001515600e60003373ffffffffffffffffffffffffffffffffffffffff1673ffffffffffffffffffffffffffffffffffffffff16815260200190815260200160002060009054906101000a900460ff161515145b15610fea57600854610fd233611532565b610fdc9190613eaa565b81610fe79190613e76565b90505b6000811161102d576040517f08c379a000000000000000000000000000000000000000000000000000000000815260040161102490613df3565b60405180910390fd5b6000600d60003373ffffffffffffffffffffffffffffffffffffffff1673ffffffffffffffffffffffffffffffffffffffff168152602001908152602001600020819055506001600e60003373ffffffffffffffffffffffffffffffffffffffff1673ffffffffffffffffffffffffffffffffffffffff16815260200190815260200160002060006101000a81548160ff021916908315150217905550600033905060008173ffffffffffffffffffffffffffffffffffffffff16836040516110f590613fc6565b60006040518083038185875af1925050503d8060008114611132576040519150601f19603f3d011682016040523d82523d6000602084013e611137565b606091505b505090508061117b576040517f08c379a000000000000000000000000000000000000000000000000000000000815260040161117290613df3565b60405180910390fd5b7f9fe2db218b58c00ab3556f2be44b2769b37978368c63313d82d78306568e477633846040516111ac929190613fdb565b60405180910390a1505050611429565b6004808111156111cf576111ce6136e7565b5b600660009054906101000a900460ff1660048111156111f1576111f06136e7565b5b14611231576040517f08c379a000000000000000000000000000000000000000000000000000000000815260040161122890613df3565b60405180910390fd5b6000600d6000600c60029054906101000a900473ffffffffffffffffffffffffffffffffffffffff1673ffffffffffffffffffffffffffffffffffffffff1673ffffffffffffffffffffffffffffffffffffffff168152602001908152602001600020549050600081116112da576040517f08c379a00000000000000000000000000000000000000000000000000000000081526004016112d190613df3565b60405180910390fd5b6000600d6000600c60029054906101000a900473ffffffffffffffffffffffffffffffffffffffff1673ffffffffffffffffffffffffffffffffffffffff1673ffffffffffffffffffffffffffffffffffffffff1681526020019081526020016000208190555060003373ffffffffffffffffffffffffffffffffffffffff168260405161136790613fc6565b60006040518083038185875af1925050503d80600081146113a4576040519150601f19603f3d011682016040523d82523d6000602084013e6113a9565b606091505b50509050806113ed576040517f08c379a00000000000000000000000000000000000000000000000000000000081526004016113e490613df3565b60405180910390fd5b7f5f0d69e5c0056ecc650fc0d2d916359037135dac3d5b5446d226dfdbe292482e338360405161141e929190613fdb565b60405180910390a150505b565b61144683838360405180602001604052806000815250611c2b565b505050565b600e6020528060005260406000206000915054906101000a900460ff1681565b6007818154811061147b57600080fd5b90600052602060002090600202016000915090508060000154908060010160009054906101000a900460ff16905082565b6000806114b883612979565b9050600073ffffffffffffffffffffffffffffffffffffffff168173ffffffffffffffffffffffffffffffffffffffff1603611529576040517f08c379a000000000000000000000000000000000000000000000000000000000815260040161152090614050565b60405180910390fd5b80915050919050565b60008073ffffffffffffffffffffffffffffffffffffffff168273ffffffffffffffffffffffffffffffffffffffff16036115a2576040517f08c379a0000000000000000000000000000000000000000000000000000000008152600401611599906140e2565b60405180910390fd5b600360008373ffffffffffffffffffffffffffffffffffffffff1673ffffffffffffffffffffffffffffffffffffffff168152602001908152602001600020549050919050565b60018060048111156115fe576115fd6136e7565b5b600660009054906101000a900460ff1660048111156116205761161f6136e7565b5b14611660576040517f08c379a000000000000000000000000000000000000000000000000000000000815260040161165790613d7e565b60405180910390fd5b3373ffffffffffffffffffffffffffffffffffffffff16600f600084815260200190815260200160002060009054906101000a900473ffffffffffffffffffffffffffffffffffffffff1673ffffffffffffffffffffffffffffffffffffffff1603611701576040517f08c379a00000000000000000000000000000000000000000000000000000000081526004016116f89061414e565b60405180910390fd5b33600f600084815260200190815260200160002060006101000a81548173ffffffffffffffffffffffffffffffffffffffff021916908373ffffffffffffffffffffffffffffffffffffffff1602179055505050565b600c60029054906101000a900473ffffffffffffffffffffffffffffffffffffffff1681565b600f6020528060005260406000206000915054906101000a900473ffffffffffffffffffffffffffffffffffffffff1681565b6060600180546117bf90613b4b565b80601f01602080910402602001604051908101604052809291908181526020018280546117eb90613b4b565b80156118385780601f1061180d57610100808354040283529160200191611838565b820191906000526020600020905b81548152906001019060200180831161181b57829003601f168201915b5050505050905090565b600c60019054906101000a900460ff1681565b600180600481111561186a576118696136e7565b5b600660009054906101000a900460ff16600481111561188c5761188b6136e7565b5b146118cc576040517f08c379a00000000000000000000000000000000000000000000000000000000081526004016118c390613d7e565b60405180910390fd5b3373ffffffffffffffffffffffffffffffffffffffff166118ec836114ac565b73ffffffffffffffffffffffffffffffffffffffff1614611942576040517f08c379a000000000000000000000000000000000000000000000000000000000815260040161193990613df3565b60405180910390fd5b61194d836001611968565b61195783836109a9565b505050565b60095481565b60085481565b61197a61197361252a565b83836129b6565b5050565b6001806004811115611993576119926136e7565b5b600660009054906101000a900460ff1660048111156119b5576119b46136e7565b5b146119f5576040517f08c379a00000000000000000000000000000000000000000000000000000000081526004016119ec90613d7e565b60405180910390fd5b823373ffffffffffffffffffffffffffffffffffffffff16611a16826114ac565b73ffffffffffffffffffffffffffffffffffffffff1614611a6c576040517f08c379a0000000000000000000000000000000000000000000000000000000008152600401611a6390613df3565b60405180910390fd5b60016002811115611a8057611a7f6136e7565b5b60078581548110611a9457611a93613d9e565b5b906000526020600020906002020160010160009054906101000a900460ff166002811115611ac557611ac46136e7565b5b03611b05576040517f08c379a0000000000000000000000000000000000000000000000000000000008152600401611afc90613df3565b60405180910390fd5b60011515600c60009054906101000a900460ff16151514611b5b576040517f08c379a0000000000000000000000000000000000000000000000000000000008152600401611b5290613df3565b60405180910390fd5b600260078581548110611b7157611b70613d9e565b5b906000526020600020906002020160010160006101000a81548160ff02191690836002811115611ba457611ba36136e7565b5b02179055508260078581548110611bbe57611bbd613d9e565b5b9060005260206000209060020201600001819055507fec1a51878793b26371980da80139946e4a398461978717cbe8d07596dd3404b63385604051611c04929190613fdb565b60405180910390a150505050565b600a5481565b600c60009054906101000a900460ff1681565b611c3c611c3661252a565b836125eb565b611c7b576040517f08c379a0000000000000000000000000000000000000000000000000000000008152600401611c7290613d12565b60405180910390fd5b611c8784848484612b22565b50505050565b600660009054906101000a900460ff1681565b6060611cab826124df565b6000611cb5612b7e565b90506000815111611cd55760405180602001604052806000815250611d00565b80611cdf84612b95565b604051602001611cf09291906141aa565b6040516020818303038152906040525b915050919050565b6000600c60029054906101000a900473ffffffffffffffffffffffffffffffffffffffff1673ffffffffffffffffffffffffffffffffffffffff163373ffffffffffffffffffffffffffffffffffffffff1614611d9a576040517f08c379a0000000000000000000000000000000000000000000000000000000008152600401611d9190613df3565b60405180910390fd5b81600660006101000a81548160ff02191690836004811115611dbf57611dbe6136e7565b5b021790555060036004811115611dd857611dd76136e7565b5b600660009054906101000a900460ff166004811115611dfa57611df96136e7565b5b03611ea5576001600c60016101000a81548160ff021916908315150217905550600780549050600854611e2d9190613eaa565b600d6000600c60029054906101000a900473ffffffffffffffffffffffffffffffffffffffff1673ffffffffffffffffffffffffffffffffffffffff1673ffffffffffffffffffffffffffffffffffffffff1681526020019081526020016000206000828254611e9d9190613e42565b925050819055505b600660009054906101000a900460ff169050919050565b6000600560008473ffffffffffffffffffffffffffffffffffffffff1673ffffffffffffffffffffffffffffffffffffffff16815260200190815260200160002060008373ffffffffffffffffffffffffffffffffffffffff1673ffffffffffffffffffffffffffffffffffffffff16815260200190815260200160002060009054906101000a900460ff16905092915050565b6001806004811115611f6557611f646136e7565b5b600660009054906101000a900460ff166004811115611f8757611f866136e7565b5b14611fc7576040517f08c379a0000000000000000000000000000000000000000000000000000000008152600401611fbe90613d7e565b60405180910390fd5b6000600a541161200c576040517f08c379a000000000000000000000000000000000000000000000000000000000815260040161200390613df3565b60405180910390fd5b600854341015612051576040517f08c379a000000000000000000000000000000000000000000000000000000000815260040161204890613df3565b60405180910390fd5b6007604051806040016040528060085481526020016000600281111561207a576120796136e7565b5b81525090806001815401808255809150506001900390600052602060002090600202016000909190919091506000820151816000015560208201518160010160006101000a81548160ff021916908360028111156120db576120da6136e7565b5b02179055505050600060016007805490506120f69190613e42565b9050600a600081548092919061210b906141ce565b91905055506008543411156121845760006008543461212a9190613e42565b905080600d60003373ffffffffffffffffffffffffffffffffffffffff1673ffffffffffffffffffffffffffffffffffffffff168152602001908152602001600020600082825461217b9190613e76565b92505081905550505b600854600d6000600c60029054906101000a900473ffffffffffffffffffffffffffffffffffffffff1673ffffffffffffffffffffffffffffffffffffffff1673ffffffffffffffffffffffffffffffffffffffff16815260200190815260200160002060008282546121f79190613e76565b925050819055506122083382612c63565b7f1b430c41ad1e9efc507aac150600ae9a3da936ed08479682cf954ffe044cd3d7306122326108d1565b33846040516122449493929190613f4c565b60405180910390a15050565b6002806004811115612265576122646136e7565b5b600660009054906101000a900460ff166004811115612287576122866136e7565b5b146122c7576040517f08c379a00000000000000000000000000000000000000000000000000000000081526004016122be90613d7e565b60405180910390fd5b813373ffffffffffffffffffffffffffffffffffffffff166122e8826114ac565b73ffffffffffffffffffffffffffffffffffffffff161461233e576040517f08c379a000000000000000000000000000000000000000000000000000000000815260040161233590613df3565b60405180910390fd5b60006002811115612352576123516136e7565b5b6007848154811061236657612365613d9e565b5b906000526020600020906002020160010160009054906101000a900460ff166002811115612397576123966136e7565b5b146123d7576040517f08c379a00000000000000000000000000000000000000000000000000000000081526004016123ce90613df3565b60405180910390fd5b6001600784815481106123ed576123ec613d9e565b5b906000526020600020906002020160010160006101000a81548160ff021916908360028111156124205761241f6136e7565b5b021790555061242e83612c81565b7fac92174eeb61f85360ac620b9781698309ca5a158de1f1174c15bec108483b4430846124596108d1565b604051612468939291906141f7565b60405180910390a1505050565b60007f01ffc9a7000000000000000000000000000000000000000000000000000000007bffffffffffffffffffffffffffffffffffffffffffffffffffffffff1916827bffffffffffffffffffffffffffffffffffffffffffffffffffffffff1916149050919050565b6124e881612dcf565b612527576040517f08c379a000000000000000000000000000000000000000000000000000000000815260040161251e90614050565b60405180910390fd5b50565b600033905090565b816004600083815260200190815260200160002060006101000a81548173ffffffffffffffffffffffffffffffffffffffff021916908373ffffffffffffffffffffffffffffffffffffffff160217905550808273ffffffffffffffffffffffffffffffffffffffff166125a5836114ac565b73ffffffffffffffffffffffffffffffffffffffff167f8c5be1e5ebec7d5bd14f71427d1e84f3dd0314c0f7b2291e5b200ac8c7c3b92560405160405180910390a45050565b6000806125f7836114ac565b90508073ffffffffffffffffffffffffffffffffffffffff168473ffffffffffffffffffffffffffffffffffffffff16148061263957506126388185611ebc565b5b8061267757508373ffffffffffffffffffffffffffffffffffffffff1661265f84610963565b73ffffffffffffffffffffffffffffffffffffffff16145b91505092915050565b8273ffffffffffffffffffffffffffffffffffffffff166126a0826114ac565b73ffffffffffffffffffffffffffffffffffffffff16146126f6576040517f08c379a00000000000000000000000000000000000000000000000000000000081526004016126ed906142a7565b60405180910390fd5b600073ffffffffffffffffffffffffffffffffffffffff168273ffffffffffffffffffffffffffffffffffffffff1603612765576040517f08c379a000000000000000000000000000000000000000000000000000000000815260040161275c90614339565b60405180910390fd5b6127728383836001612e10565b8273ffffffffffffffffffffffffffffffffffffffff16612792826114ac565b73ffffffffffffffffffffffffffffffffffffffff16146127e8576040517f08c379a00000000000000000000000000000000000000000000000000000000081526004016127df906142a7565b60405180910390fd5b6004600082815260200190815260200160002060006101000a81549073ffffffffffffffffffffffffffffffffffffffff02191690556001600360008573ffffffffffffffffffffffffffffffffffffffff1673ffffffffffffffffffffffffffffffffffffffff168152602001908152602001600020600082825403925050819055506001600360008473ffffffffffffffffffffffffffffffffffffffff1673ffffffffffffffffffffffffffffffffffffffff16815260200190815260200160002060008282540192505081905550816002600083815260200190815260200160002060006101000a81548173ffffffffffffffffffffffffffffffffffffffff021916908373ffffffffffffffffffffffffffffffffffffffff160217905550808273ffffffffffffffffffffffffffffffffffffffff168473ffffffffffffffffffffffffffffffffffffffff167fddf252ad1be2c89b69c2b068fc378daa952ba7f163c4a11628f55a4df523b3ef60405160405180910390a46129748383836001612e16565b505050565b60006002600083815260200190815260200160002060009054906101000a900473ffffffffffffffffffffffffffffffffffffffff169050919050565b8173ffffffffffffffffffffffffffffffffffffffff168373ffffffffffffffffffffffffffffffffffffffff1603612a24576040517f08c379a0000000000000000000000000000000000000000000000000000000008152600401612a1b906143a5565b60405180910390fd5b80600560008573ffffffffffffffffffffffffffffffffffffffff1673ffffffffffffffffffffffffffffffffffffffff16815260200190815260200160002060008473ffffffffffffffffffffffffffffffffffffffff1673ffffffffffffffffffffffffffffffffffffffff16815260200190815260200160002060006101000a81548160ff0219169083151502179055508173ffffffffffffffffffffffffffffffffffffffff168373ffffffffffffffffffffffffffffffffffffffff167f17307eab39ab6107e8899845ad3d59bd9653f200f220920489ca2b5937696c3183604051612b159190613445565b60405180910390a3505050565b612b2d848484612680565b612b3984848484612e1c565b612b78576040517f08c379a0000000000000000000000000000000000000000000000000000000008152600401612b6f90614437565b60405180910390fd5b50505050565b606060405180602001604052806000815250905090565b606060006001612ba484612fa3565b01905060008167ffffffffffffffff811115612bc357612bc2613879565b5b6040519080825280601f01601f191660200182016040528015612bf55781602001600182028036833780820191505090505b509050600082602001820190505b600115612c58578080600190039150507f3031323334353637383961626364656600000000000000000000000000000000600a86061a8153600a8581612c4c57612c4b613eec565b5b04945060008503612c03575b819350505050919050565b612c7d8282604051806020016040528060008152506130f6565b5050565b6000612c8c826114ac565b9050612c9c816000846001612e10565b612ca5826114ac565b90506004600083815260200190815260200160002060006101000a81549073ffffffffffffffffffffffffffffffffffffffff02191690556001600360008373ffffffffffffffffffffffffffffffffffffffff1673ffffffffffffffffffffffffffffffffffffffff168152602001908152602001600020600082825403925050819055506002600083815260200190815260200160002060006101000a81549073ffffffffffffffffffffffffffffffffffffffff021916905581600073ffffffffffffffffffffffffffffffffffffffff168273ffffffffffffffffffffffffffffffffffffffff167fddf252ad1be2c89b69c2b068fc378daa952ba7f163c4a11628f55a4df523b3ef60405160405180910390a4612dcb816000846001612e16565b5050565b60008073ffffffffffffffffffffffffffffffffffffffff16612df183612979565b73ffffffffffffffffffffffffffffffffffffffff1614159050919050565b50505050565b50505050565b6000612e3d8473ffffffffffffffffffffffffffffffffffffffff16613151565b15612f96578373ffffffffffffffffffffffffffffffffffffffff1663150b7a02612e6661252a565b8786866040518563ffffffff1660e01b8152600401612e8894939291906144ac565b6020604051808303816000875af1925050508015612ec457506040513d601f19601f82011682018060405250810190612ec1919061450d565b60015b612f46573d8060008114612ef4576040519150601f19603f3d011682016040523d82523d6000602084013e612ef9565b606091505b506000815103612f3e576040517f08c379a0000000000000000000000000000000000000000000000000000000008152600401612f3590614437565b60405180910390fd5b805181602001fd5b63150b7a0260e01b7bffffffffffffffffffffffffffffffffffffffffffffffffffffffff1916817bffffffffffffffffffffffffffffffffffffffffffffffffffffffff191614915050612f9b565b600190505b949350505050565b600080600090507a184f03e93ff9f4daa797ed6e38ed64bf6a1f0100000000000000008310613001577a184f03e93ff9f4daa797ed6e38ed64bf6a1f0100000000000000008381612ff757612ff6613eec565b5b0492506040810190505b6d04ee2d6d415b85acef8100000000831061303e576d04ee2d6d415b85acef8100000000838161303457613033613eec565b5b0492506020810190505b662386f26fc10000831061306d57662386f26fc10000838161306357613062613eec565b5b0492506010810190505b6305f5e1008310613096576305f5e100838161308c5761308b613eec565b5b0492506008810190505b61271083106130bb5761271083816130b1576130b0613eec565b5b0492506004810190505b606483106130de57606483816130d4576130d3613eec565b5b0492506002810190505b600a83106130ed576001810190505b80915050919050565b6131008383613174565b61310d6000848484612e1c565b61314c576040517f08c379a000000000000000000000000000000000000000000000000000000000815260040161314390614437565b60405180910390fd5b505050565b6000808273ffffffffffffffffffffffffffffffffffffffff163b119050919050565b600073ffffffffffffffffffffffffffffffffffffffff168273ffffffffffffffffffffffffffffffffffffffff16036131e3576040517f08c379a00000000000000000000000000000000000000000000000000000000081526004016131da90614586565b60405180910390fd5b6131ec81612dcf565b1561322c576040517f08c379a0000000000000000000000000000000000000000000000000000000008152600401613223906145f2565b60405180910390fd5b61323a600083836001612e10565b61324381612dcf565b15613283576040517f08c379a000000000000000000000000000000000000000000000000000000000815260040161327a906145f2565b60405180910390fd5b6001600360008473ffffffffffffffffffffffffffffffffffffffff1673ffffffffffffffffffffffffffffffffffffffff16815260200190815260200160002060008282540192505081905550816002600083815260200190815260200160002060006101000a81548173ffffffffffffffffffffffffffffffffffffffff021916908373ffffffffffffffffffffffffffffffffffffffff160217905550808273ffffffffffffffffffffffffffffffffffffffff16600073ffffffffffffffffffffffffffffffffffffffff167fddf252ad1be2c89b69c2b068fc378daa952ba7f163c4a11628f55a4df523b3ef60405160405180910390a461338d600083836001612e16565b5050565b6000604051905090565b600080fd5b600080fd5b60007fffffffff0000000000000000000000000000000000000000000000000000000082169050919050565b6133da816133a5565b81146133e557600080fd5b50565b6000813590506133f7816133d1565b92915050565b6000602082840312156134135761341261339b565b5b6000613421848285016133e8565b91505092915050565b60008115159050919050565b61343f8161342a565b82525050565b600060208201905061345a6000830184613436565b92915050565b600081519050919050565b600082825260208201905092915050565b60005b8381101561349a57808201518184015260208101905061347f565b60008484015250505050565b6000601f19601f8301169050919050565b60006134c282613460565b6134cc818561346b565b93506134dc81856020860161347c565b6134e5816134a6565b840191505092915050565b6000602082019050818103600083015261350a81846134b7565b905092915050565b6000819050919050565b61352581613512565b811461353057600080fd5b50565b6000813590506135428161351c565b92915050565b60006020828403121561355e5761355d61339b565b5b600061356c84828501613533565b91505092915050565b600073ffffffffffffffffffffffffffffffffffffffff82169050919050565b60006135a082613575565b9050919050565b6135b081613595565b82525050565b60006020820190506135cb60008301846135a7565b92915050565b6135da81613595565b81146135e557600080fd5b50565b6000813590506135f7816135d1565b92915050565b600080604083850312156136145761361361339b565b5b6000613622858286016135e8565b925050602061363385828601613533565b9150509250929050565b6000806000606084860312156136565761365561339b565b5b6000613664868287016135e8565b9350506020613675868287016135e8565b925050604061368686828701613533565b9150509250925092565b6000602082840312156136a6576136a561339b565b5b60006136b4848285016135e8565b91505092915050565b6136c681613512565b82525050565b60006020820190506136e160008301846136bd565b92915050565b7f4e487b7100000000000000000000000000000000000000000000000000000000600052602160045260246000fd5b60038110613727576137266136e7565b5b50565b600081905061373882613716565b919050565b60006137488261372a565b9050919050565b6137588161373d565b82525050565b600060408201905061377360008301856136bd565b613780602083018461374f565b9392505050565b600061379282613575565b9050919050565b6137a281613787565b82525050565b60006020820190506137bd6000830184613799565b92915050565b6137cc8161342a565b81146137d757600080fd5b50565b6000813590506137e9816137c3565b92915050565b600080604083850312156138065761380561339b565b5b6000613814858286016135e8565b9250506020613825858286016137da565b9150509250929050565b600080604083850312156138465761384561339b565b5b600061385485828601613533565b925050602061386585828601613533565b9150509250929050565b600080fd5b600080fd5b7f4e487b7100000000000000000000000000000000000000000000000000000000600052604160045260246000fd5b6138b1826134a6565b810181811067ffffffffffffffff821117156138d0576138cf613879565b5b80604052505050565b60006138e3613391565b90506138ef82826138a8565b919050565b600067ffffffffffffffff82111561390f5761390e613879565b5b613918826134a6565b9050602081019050919050565b82818337600083830152505050565b6000613947613942846138f4565b6138d9565b90508281526020810184848401111561396357613962613874565b5b61396e848285613925565b509392505050565b600082601f83011261398b5761398a61386f565b5b813561399b848260208601613934565b91505092915050565b600080600080608085870312156139be576139bd61339b565b5b60006139cc878288016135e8565b94505060206139dd878288016135e8565b93505060406139ee87828801613533565b925050606085013567ffffffffffffffff811115613a0f57613a0e6133a0565b5b613a1b87828801613976565b91505092959194509250565b60058110613a3857613a376136e7565b5b50565b6000819050613a4982613a27565b919050565b6000613a5982613a3b565b9050919050565b613a6981613a4e565b82525050565b6000602082019050613a846000830184613a60565b92915050565b60058110613a9757600080fd5b50565b600081359050613aa981613a8a565b92915050565b600060208284031215613ac557613ac461339b565b5b6000613ad384828501613a9a565b91505092915050565b60008060408385031215613af357613af261339b565b5b6000613b01858286016135e8565b9250506020613b12858286016135e8565b9150509250929050565b7f4e487b7100000000000000000000000000000000000000000000000000000000600052602260045260246000fd5b60006002820490506001821680613b6357607f821691505b602082108103613b7657613b75613b1c565b5b50919050565b7f4552433732313a20617070726f76616c20746f2063757272656e74206f776e6560008201527f7200000000000000000000000000000000000000000000000000000000000000602082015250565b6000613bd860218361346b565b9150613be382613b7c565b604082019050919050565b60006020820190508181036000830152613c0781613bcb565b9050919050565b7f4552433732313a20617070726f76652063616c6c6572206973206e6f7420746f60008201527f6b656e206f776e6572206f7220617070726f76656420666f7220616c6c000000602082015250565b6000613c6a603d8361346b565b9150613c7582613c0e565b604082019050919050565b60006020820190508181036000830152613c9981613c5d565b9050919050565b7f4552433732313a2063616c6c6572206973206e6f7420746f6b656e206f776e6560008201527f72206f7220617070726f76656400000000000000000000000000000000000000602082015250565b6000613cfc602d8361346b565b9150613d0782613ca0565b604082019050919050565b60006020820190508181036000830152613d2b81613cef565b9050919050565b7f77726f6e67207374616765000000000000000000000000000000000000000000600082015250565b6000613d68600b8361346b565b9150613d7382613d32565b602082019050919050565b60006020820190508181036000830152613d9781613d5b565b9050919050565b7f4e487b7100000000000000000000000000000000000000000000000000000000600052603260045260246000fd5b50565b6000613ddd60008361346b565b9150613de882613dcd565b600082019050919050565b60006020820190508181036000830152613e0c81613dd0565b9050919050565b7f4e487b7100000000000000000000000000000000000000000000000000000000600052601160045260246000fd5b6000613e4d82613512565b9150613e5883613512565b9250828203905081811115613e7057613e6f613e13565b5b92915050565b6000613e8182613512565b9150613e8c83613512565b9250828201905080821115613ea457613ea3613e13565b5b92915050565b6000613eb582613512565b9150613ec083613512565b9250828202613ece81613512565b91508282048414831517613ee557613ee4613e13565b5b5092915050565b7f4e487b7100000000000000000000000000000000000000000000000000000000600052601260045260246000fd5b6000613f2682613512565b9150613f3183613512565b925082613f4157613f40613eec565b5b828204905092915050565b6000608082019050613f6160008301876135a7565b8181036020830152613f7381866134b7565b9050613f8260408301856135a7565b613f8f60608301846136bd565b95945050505050565b600081905092915050565b6000613fb0600083613f98565b9150613fbb82613dcd565b600082019050919050565b6000613fd182613fa3565b9150819050919050565b6000604082019050613ff060008301856135a7565b613ffd60208301846136bd565b9392505050565b7f4552433732313a20696e76616c696420746f6b656e2049440000000000000000600082015250565b600061403a60188361346b565b915061404582614004565b602082019050919050565b600060208201905081810360008301526140698161402d565b9050919050565b7f4552433732313a2061646472657373207a65726f206973206e6f74206120766160008201527f6c6964206f776e65720000000000000000000000000000000000000000000000602082015250565b60006140cc60298361346b565b91506140d782614070565b604082019050919050565b600060208201905081810360008301526140fb816140bf565b9050919050565b7f7265676973746572206572726f72000000000000000000000000000000000000600082015250565b6000614138600e8361346b565b915061414382614102565b602082019050919050565b600060208201905081810360008301526141678161412b565b9050919050565b600081905092915050565b600061418482613460565b61418e818561416e565b935061419e81856020860161347c565b80840191505092915050565b60006141b68285614179565b91506141c28284614179565b91508190509392505050565b60006141d982613512565b9150600082036141ec576141eb613e13565b5b600182039050919050565b600060608201905061420c60008301866135a7565b61421960208301856136bd565b818103604083015261422b81846134b7565b9050949350505050565b7f4552433732313a207472616e736665722066726f6d20696e636f72726563742060008201527f6f776e6572000000000000000000000000000000000000000000000000000000602082015250565b600061429160258361346b565b915061429c82614235565b604082019050919050565b600060208201905081810360008301526142c081614284565b9050919050565b7f4552433732313a207472616e7366657220746f20746865207a65726f2061646460008201527f7265737300000000000000000000000000000000000000000000000000000000602082015250565b600061432360248361346b565b915061432e826142c7565b604082019050919050565b6000602082019050818103600083015261435281614316565b9050919050565b7f4552433732313a20617070726f766520746f2063616c6c657200000000000000600082015250565b600061438f60198361346b565b915061439a82614359565b602082019050919050565b600060208201905081810360008301526143be81614382565b9050919050565b7f4552433732313a207472616e7366657220746f206e6f6e20455243373231526560008201527f63656976657220696d706c656d656e7465720000000000000000000000000000602082015250565b600061442160328361346b565b915061442c826143c5565b604082019050919050565b6000602082019050818103600083015261445081614414565b9050919050565b600081519050919050565b600082825260208201905092915050565b600061447e82614457565b6144888185614462565b935061449881856020860161347c565b6144a1816134a6565b840191505092915050565b60006080820190506144c160008301876135a7565b6144ce60208301866135a7565b6144db60408301856136bd565b81810360608301526144ed8184614473565b905095945050505050565b600081519050614507816133d1565b92915050565b6000602082840312156145235761452261339b565b5b6000614531848285016144f8565b91505092915050565b7f4552433732313a206d696e7420746f20746865207a65726f2061646472657373600082015250565b600061457060208361346b565b915061457b8261453a565b602082019050919050565b6000602082019050818103600083015261459f81614563565b9050919050565b7f4552433732313a20746f6b656e20616c7265616479206d696e74656400000000600082015250565b60006145dc601c8361346b565b91506145e7826145a6565b602082019050919050565b6000602082019050818103600083015261460b816145cf565b905091905056fea26469706673582212205f213e762a6d2b10dabb1c61a176fe598cd36a8d28f8805557eddd18fa1ff06764736f6c63430008110033a264697066735822122095c7d1bf41b5dbb4f3311f4799ffd55a2e8b5d99abdc587baa1de84e88e1afee64736f6c63430008110033",
  "linkReferences": {},
  "deployedLinkReferences": {}
}